{
  "contractName": "ProxyWallet",
  "abi": [
    {
      "constant": true,
      "inputs": [
        {
          "name": "",
          "type": "address"
        }
      ],
      "name": "isAdministrator",
      "outputs": [
        {
          "name": "",
          "type": "bool"
        }
      ],
      "payable": false,
      "stateMutability": "view",
      "type": "function"
    },
    {
      "constant": true,
      "inputs": [],
      "name": "version",
      "outputs": [
        {
          "name": "",
          "type": "string"
        }
      ],
      "payable": false,
      "stateMutability": "view",
      "type": "function"
    },
    {
      "constant": true,
      "inputs": [],
      "name": "owner",
      "outputs": [
        {
          "name": "",
          "type": "address"
        }
      ],
      "payable": false,
      "stateMutability": "view",
      "type": "function"
    },
    {
      "constant": true,
      "inputs": [
        {
          "name": "",
          "type": "uint256"
        }
      ],
      "name": "administrators",
      "outputs": [
        {
          "name": "",
          "type": "address"
        }
      ],
      "payable": false,
      "stateMutability": "view",
      "type": "function"
    },
    {
      "inputs": [
        {
          "name": "_administrators",
          "type": "address[]"
        },
        {
          "name": "_username",
          "type": "string"
        },
        {
          "name": "_publicKey",
          "type": "string"
        }
      ],
      "payable": false,
      "stateMutability": "nonpayable",
      "type": "constructor"
    },
    {
      "anonymous": false,
      "inputs": [
        {
          "indexed": true,
          "name": "from",
          "type": "address"
        },
        {
          "indexed": false,
          "name": "username",
          "type": "string"
        }
      ],
      "name": "UsernameSet",
      "type": "event"
    },
    {
      "anonymous": false,
      "inputs": [
        {
          "indexed": true,
          "name": "from",
          "type": "address"
        },
        {
          "indexed": false,
          "name": "publicKey",
          "type": "string"
        }
      ],
      "name": "PublicKeySet",
      "type": "event"
    },
    {
      "anonymous": false,
      "inputs": [
        {
          "indexed": true,
          "name": "admin",
          "type": "address"
        }
      ],
      "name": "AdministratorAdded",
      "type": "event"
    },
    {
      "constant": false,
      "inputs": [
        {
          "name": "_admin",
          "type": "address"
        }
      ],
      "name": "addAdministrator",
      "outputs": [],
      "payable": false,
      "stateMutability": "nonpayable",
      "type": "function"
    },
    {
      "constant": true,
      "inputs": [],
      "name": "getAllAdministrators",
      "outputs": [
        {
          "name": "",
          "type": "address[]"
        }
      ],
      "payable": false,
      "stateMutability": "view",
      "type": "function"
    },
    {
      "constant": false,
      "inputs": [
        {
          "name": "msgHash",
          "type": "bytes32"
        },
        {
          "name": "v",
          "type": "uint8"
        },
        {
          "name": "r",
          "type": "bytes32"
        },
        {
          "name": "s",
          "type": "bytes32"
        }
      ],
      "name": "recoverAddr",
      "outputs": [
        {
          "name": "",
          "type": "address"
        }
      ],
      "payable": false,
      "stateMutability": "nonpayable",
      "type": "function"
    },
    {
      "constant": false,
      "inputs": [
        {
          "name": "_addr",
          "type": "address"
        },
        {
          "name": "msgHash",
          "type": "bytes32"
        },
        {
          "name": "v",
          "type": "uint8"
        },
        {
          "name": "r",
          "type": "bytes32"
        },
        {
          "name": "s",
          "type": "bytes32"
        }
      ],
      "name": "isSigned",
      "outputs": [
        {
          "name": "",
          "type": "bool"
        }
      ],
      "payable": false,
      "stateMutability": "nonpayable",
      "type": "function"
    },
    {
      "constant": false,
      "inputs": [],
      "name": "kill",
      "outputs": [],
      "payable": false,
      "stateMutability": "nonpayable",
      "type": "function"
    }
  ],
  "bytecode": "0x60806040526040805190810160405280600581526020017f302e302e310000000000000000000000000000000000000000000000000000008152506005908051906020019062000051929190620004f9565b503480156200005f57600080fd5b5060405162000f4238038062000f4283398101806040528101908080518201929190602001805182019291906020018051820192919050505060008360008151111515620000ac57600080fd5b336000806101000a81548173ffffffffffffffffffffffffffffffffffffffff021916908373ffffffffffffffffffffffffffffffffffffffff16021790555062000106846200017a640100000000026401000000009004565b62000120836200025f640100000000026401000000009004565b600091505b84518210156200016f576200016185838151811015156200014257fe5b9060200190602002015162000344640100000000026401000000009004565b818060010192505062000125565b5050505050620005a8565b80600081511115156200018c57600080fd5b8160039080519060200190620001a4929190620004f9565b503373ffffffffffffffffffffffffffffffffffffffff167f74d8e560d2e870c35b35dc882df2a5c96e2bf1cdb5ef6dd2f9cb433c8d048853836040518080602001828103825283818151815260200191508051906020019080838360005b838110156200022057808201518184015260208101905062000203565b50505050905090810190601f1680156200024e5780820380516001836020036101000a031916815260200191505b509250505060405180910390a25050565b80600081511115156200027157600080fd5b816004908051906020019062000289929190620004f9565b503373ffffffffffffffffffffffffffffffffffffffff167f04e4e591d22d14223bc0c2a948352d1a93ba82695e446ca5f8b238cfa7d69304836040518080602001828103825283818151815260200191508051906020019080838360005b8381101562000305578082015181840152602081019050620002e8565b50505050905090810190601f168015620003335780820380516001836020036101000a031916815260200191505b509250505060405180910390a25050565b6000809054906101000a900473ffffffffffffffffffffffffffffffffffffffff1673ffffffffffffffffffffffffffffffffffffffff163373ffffffffffffffffffffffffffffffffffffffff161415620004f657600260008273ffffffffffffffffffffffffffffffffffffffff1673ffffffffffffffffffffffffffffffffffffffff16815260200190815260200160002060009054906101000a900460ff16151515620003f457600080fd5b60018190806001815401808255809150509060018203906000526020600020016000909192909190916101000a81548173ffffffffffffffffffffffffffffffffffffffff021916908373ffffffffffffffffffffffffffffffffffffffff160217905550506001600260008373ffffffffffffffffffffffffffffffffffffffff1673ffffffffffffffffffffffffffffffffffffffff16815260200190815260200160002060006101000a81548160ff0219169083151502179055508073ffffffffffffffffffffffffffffffffffffffff167fe78a1675a4b4d68d04fc70b93f9c37c5288e084d9b02d718103f7ad5e292b68860405160405180910390a25b50565b828054600181600116156101000203166002900490600052602060002090601f016020900481019282601f106200053c57805160ff19168380011785556200056d565b828001600101855582156200056d579182015b828111156200056c5782518255916020019190600101906200054f565b5b5090506200057c919062000580565b5090565b620005a591905b80821115620005a157600081600090555060010162000587565b5090565b90565b61098a80620005b86000396000f300608060405260043610610099576000357c0100000000000000000000000000000000000000000000000000000000900463ffffffff1680630a2eb3011461009e57806341c0e1b5146100f957806354fd4d50146101105780636ddd5db6146101a05780638677ebe81461020c5780638da5cb5b1461029e578063c9991176146102f5578063d89d151014610338578063e5df669f146103a5575b600080fd5b3480156100aa57600080fd5b506100df600480360381019080803573ffffffffffffffffffffffffffffffffffffffff16906020019092919050505061043f565b604051808215151515815260200191505060405180910390f35b34801561010557600080fd5b5061010e61045f565b005b34801561011c57600080fd5b506101256104d3565b6040518080602001828103825283818151815260200191508051906020019080838360005b8381101561016557808201518184015260208101905061014a565b50505050905090810190601f1680156101925780820380516001836020036101000a031916815260200191505b509250505060405180910390f35b3480156101ac57600080fd5b506101b5610571565b6040518080602001828103825283818151815260200191508051906020019060200280838360005b838110156101f85780820151818401526020810190506101dd565b505050509050019250505060405180910390f35b34801561021857600080fd5b50610284600480360381019080803573ffffffffffffffffffffffffffffffffffffffff1690602001909291908035600019169060200190929190803560ff169060200190929190803560001916906020019092919080356000191690602001909291905050506105ff565b604051808215151515815260200191505060405180910390f35b3480156102aa57600080fd5b506102b36106bb565b604051808273ffffffffffffffffffffffffffffffffffffffff1673ffffffffffffffffffffffffffffffffffffffff16815260200191505060405180910390f35b34801561030157600080fd5b50610336600480360381019080803573ffffffffffffffffffffffffffffffffffffffff1690602001909291905050506106e0565b005b34801561034457600080fd5b5061036360048036038101908080359060200190929190505050610893565b604051808273ffffffffffffffffffffffffffffffffffffffff1673ffffffffffffffffffffffffffffffffffffffff16815260200191505060405180910390f35b3480156103b157600080fd5b506103fd6004803603810190808035600019169060200190929190803560ff169060200190929190803560001916906020019092919080356000191690602001909291905050506108d1565b604051808273ffffffffffffffffffffffffffffffffffffffff1673ffffffffffffffffffffffffffffffffffffffff16815260200191505060405180910390f35b60026020528060005260406000206000915054906101000a900460ff1681565b6000809054906101000a900473ffffffffffffffffffffffffffffffffffffffff1673ffffffffffffffffffffffffffffffffffffffff163373ffffffffffffffffffffffffffffffffffffffff161415156104ba57600080fd5b3373ffffffffffffffffffffffffffffffffffffffff16ff5b60058054600181600116156101000203166002900480601f0160208091040260200160405190810160405280929190818152602001828054600181600116156101000203166002900480156105695780601f1061053e57610100808354040283529160200191610569565b820191906000526020600020905b81548152906001019060200180831161054c57829003601f168201915b505050505081565b606060018054806020026020016040519081016040528092919081815260200182805480156105f557602002820191906000526020600020905b8160009054906101000a900473ffffffffffffffffffffffffffffffffffffffff1673ffffffffffffffffffffffffffffffffffffffff16815260200190600101908083116105ab575b5050505050905090565b60008573ffffffffffffffffffffffffffffffffffffffff16600186868686604051600081526020016040526040518085600019166000191681526020018460ff1660ff1681526020018360001916600019168152602001826000191660001916815260200194505050505060206040516020810390808403906000865af115801561068f573d6000803e3d6000fd5b5050506020604051035173ffffffffffffffffffffffffffffffffffffffff1614905095945050505050565b6000809054906101000a900473ffffffffffffffffffffffffffffffffffffffff1681565b6000809054906101000a900473ffffffffffffffffffffffffffffffffffffffff1673ffffffffffffffffffffffffffffffffffffffff163373ffffffffffffffffffffffffffffffffffffffff16141561089057600260008273ffffffffffffffffffffffffffffffffffffffff1673ffffffffffffffffffffffffffffffffffffffff16815260200190815260200160002060009054906101000a900460ff1615151561078e57600080fd5b60018190806001815401808255809150509060018203906000526020600020016000909192909190916101000a81548173ffffffffffffffffffffffffffffffffffffffff021916908373ffffffffffffffffffffffffffffffffffffffff160217905550506001600260008373ffffffffffffffffffffffffffffffffffffffff1673ffffffffffffffffffffffffffffffffffffffff16815260200190815260200160002060006101000a81548160ff0219169083151502179055508073ffffffffffffffffffffffffffffffffffffffff167fe78a1675a4b4d68d04fc70b93f9c37c5288e084d9b02d718103f7ad5e292b68860405160405180910390a25b50565b6001818154811015156108a257fe5b906000526020600020016000915054906101000a900473ffffffffffffffffffffffffffffffffffffffff1681565b6000600185858585604051600081526020016040526040518085600019166000191681526020018460ff1660ff1681526020018360001916600019168152602001826000191660001916815260200194505050505060206040516020810390808403906000865af115801561094a573d6000803e3d6000fd5b5050506020604051035190509493505050505600a165627a7a723058207a582a7bd7c8a3b77af548bb40f53c5e625ee2b48c50ceac96614937a0e4ce4e0029",
  "source": "pragma solidity ^0.4.24;\n\n/**\n * @title Proxy Wallet.\n * @author Tap Trust\n * @dev Proof of concept implementation of a Solidity proxy wallet.\n * Unlike most authentication in Ethereum contracts,\n * the address of the transaction sender is arbitrary,\n * but it includes a signed message that can be authenticated\n * as being from either the account owner or a dApp\n * for whom the account owner has created a session with permissions.\n */\ncontract ProxyWallet {\n\n  address public owner;\n\n  // List of administrator addresses\n  address[] public administrators;\n  mapping(address => bool) public isAdministrator;\n\n  // Owner Username\n  string private ownerUsername;\n\n  // Owner Public Key\n  string private ownerPublicKey;\n\n  string public version = \"0.0.1\";\n\n  modifier isOwner() {\n    if (msg.sender == owner) _;\n  }\n\n  /**\n   * @dev Requires that a valid administrator address was provided.\n   * @param _admin address Administrator address.\n   */\n  modifier onlyValidAdministrator(address _admin) {\n    require(_admin != address(0));\n    _;\n  }\n\n  /**\n   * @dev Requires that a valid administrator list was provided.\n   * @param _administrators address[] List of administrators.\n   */\n  modifier onlyValidAdministrators(address[] _administrators) {\n    require(_administrators.length > 0);\n    _;\n  }\n\n  /**\n   * @dev Requires that a valid username of the user was provided.\n   * @param _username string Username of the user.\n   */\n  modifier onlyValidUsername(string _username) {\n    require(bytes(_username).length > 0);\n    _;\n  }\n\n  /**\n   * @dev Requires that a valid public key of the user was provided.\n   * @param _publicKey string Public key of the user.\n   */\n  modifier onlyValidPublicKey(string _publicKey) {\n    require(bytes(_publicKey).length > 0);\n    _;\n  }\n\n  /**\n   * Fired when username is set.\n   */\n  event UsernameSet(address indexed from, string username);\n\n  /**\n   * Fired when public key is set.\n   */\n  event PublicKeySet(address indexed from, string publicKey);\n\n  /**\n   * Fired when administrator is added.\n   */\n  event AdministratorAdded(address indexed admin);\n\n  /**\n   * @dev Proxy Wallet constructor.\n   * @param _administrators address[] List of administrator addresses.\n   * @param _username string Username of the user.\n   * @param _publicKey string Public key of the user.\n   */\n  constructor(address[] _administrators, string _username, string _publicKey) onlyValidAdministrators(_administrators) public {\n    owner = msg.sender;\n    \n    setOwnerUsername(_username);\n\n    setOwnerPublicKey(_publicKey);\n\n    for (uint256 i = 0; i < _administrators.length; i++) {\n      addAdministrator(_administrators[i]);\n    }\n  }\n\n  //constructor() public {\n    //owner = msg.sender;\n    //admins[msg.sender] = true;\n  //}\n\n  /**\n   * @dev Set owner username.\n   * @param _username Username of the user.\n   */\n  function setOwnerUsername(string _username) onlyValidUsername(_username) internal {\n    ownerUsername = _username;\n    emit UsernameSet(msg.sender, _username);\n  }\n\n  /**\n   * @dev Set owner public key.\n   * @param _publicKey Public key of the user.\n   */\n  function setOwnerPublicKey(string _publicKey) onlyValidPublicKey(_publicKey) internal {\n    ownerPublicKey = _publicKey;\n    emit PublicKeySet(msg.sender, _publicKey);\n  }\n\n  /**\n   * @dev Add a new administrator to the contract.\n   * @param _admin address The address of the administrator to add.\n   */\n  function addAdministrator(address _admin) isOwner public {\n    require(!isAdministrator[_admin]);\n\n    administrators.push(_admin);\n    isAdministrator[_admin] = true;\n\n    emit AdministratorAdded(_admin);\n  }\n\n\n  function getAllAdministrators() public view returns (address[]){\n    return administrators;\n  }\n\n  function recoverAddr(bytes32 msgHash, uint8 v, bytes32 r, bytes32 s) public returns (address) {\n     return ecrecover(msgHash, v, r, s);\n  }\n    \n  function isSigned(address _addr, bytes32 msgHash, uint8 v, bytes32 r, bytes32 s) public returns (bool) {\n    return ecrecover(msgHash, v, r, s) == _addr;\n  }\n\n  function kill() public {\n    require(msg.sender == owner);\n    selfdestruct(msg.sender);\n  }\n\n\n}\n",
  "sourcePath": "C:\\xampp\\htdocs\\BLOCKCHAIN\\Proxy-Wallet\\contracts\\ProxyWallet.sol",
  "compiler": {
    "name": "solc",
    "version": "0.4.24+commit.e67f0147.Emscripten.clang"
  },
  "schemaVersion": "2.0.1",
  "updatedAt": "2018-09-04T05:19:48.653Z"
}